{
  "_format": "hh-sol-artifact-1",
  "contractName": "UnlimitedUSDCFaucet",
  "sourceName": "contracts/UnlimitedUSDCFaucet.sol",
  "abi": [
    {
      "inputs": [],
      "stateMutability": "nonpayable",
      "type": "constructor"
    },
    {
      "inputs": [
        {
          "internalType": "address",
          "name": "spender",
          "type": "address"
        },
        {
          "internalType": "uint256",
          "name": "allowance",
          "type": "uint256"
        },
        {
          "internalType": "uint256",
          "name": "needed",
          "type": "uint256"
        }
      ],
      "name": "ERC20InsufficientAllowance",
      "type": "error"
    },
    {
      "inputs": [
        {
          "internalType": "address",
          "name": "sender",
          "type": "address"
        },
        {
          "internalType": "uint256",
          "name": "balance",
          "type": "uint256"
        },
        {
          "internalType": "uint256",
          "name": "needed",
          "type": "uint256"
        }
      ],
      "name": "ERC20InsufficientBalance",
      "type": "error"
    },
    {
      "inputs": [
        {
          "internalType": "address",
          "name": "approver",
          "type": "address"
        }
      ],
      "name": "ERC20InvalidApprover",
      "type": "error"
    },
    {
      "inputs": [
        {
          "internalType": "address",
          "name": "receiver",
          "type": "address"
        }
      ],
      "name": "ERC20InvalidReceiver",
      "type": "error"
    },
    {
      "inputs": [
        {
          "internalType": "address",
          "name": "sender",
          "type": "address"
        }
      ],
      "name": "ERC20InvalidSender",
      "type": "error"
    },
    {
      "inputs": [
        {
          "internalType": "address",
          "name": "spender",
          "type": "address"
        }
      ],
      "name": "ERC20InvalidSpender",
      "type": "error"
    },
    {
      "inputs": [
        {
          "internalType": "address",
          "name": "owner",
          "type": "address"
        }
      ],
      "name": "OwnableInvalidOwner",
      "type": "error"
    },
    {
      "inputs": [
        {
          "internalType": "address",
          "name": "account",
          "type": "address"
        }
      ],
      "name": "OwnableUnauthorizedAccount",
      "type": "error"
    },
    {
      "anonymous": false,
      "inputs": [
        {
          "indexed": true,
          "internalType": "address",
          "name": "owner",
          "type": "address"
        },
        {
          "indexed": true,
          "internalType": "address",
          "name": "spender",
          "type": "address"
        },
        {
          "indexed": false,
          "internalType": "uint256",
          "name": "value",
          "type": "uint256"
        }
      ],
      "name": "Approval",
      "type": "event"
    },
    {
      "anonymous": false,
      "inputs": [
        {
          "indexed": true,
          "internalType": "address",
          "name": "to",
          "type": "address"
        },
        {
          "indexed": false,
          "internalType": "uint256",
          "name": "amount",
          "type": "uint256"
        },
        {
          "indexed": false,
          "internalType": "uint256",
          "name": "timestamp",
          "type": "uint256"
        }
      ],
      "name": "FaucetMint",
      "type": "event"
    },
    {
      "anonymous": false,
      "inputs": [
        {
          "indexed": true,
          "internalType": "address",
          "name": "previousOwner",
          "type": "address"
        },
        {
          "indexed": true,
          "internalType": "address",
          "name": "newOwner",
          "type": "address"
        }
      ],
      "name": "OwnershipTransferred",
      "type": "event"
    },
    {
      "anonymous": false,
      "inputs": [
        {
          "indexed": true,
          "internalType": "address",
          "name": "from",
          "type": "address"
        },
        {
          "indexed": true,
          "internalType": "address",
          "name": "to",
          "type": "address"
        },
        {
          "indexed": false,
          "internalType": "uint256",
          "name": "value",
          "type": "uint256"
        }
      ],
      "name": "Transfer",
      "type": "event"
    },
    {
      "inputs": [
        {
          "internalType": "address",
          "name": "to",
          "type": "address"
        },
        {
          "internalType": "uint256",
          "name": "amount",
          "type": "uint256"
        }
      ],
      "name": "adminMint",
      "outputs": [],
      "stateMutability": "nonpayable",
      "type": "function"
    },
    {
      "inputs": [
        {
          "internalType": "address",
          "name": "owner",
          "type": "address"
        },
        {
          "internalType": "address",
          "name": "spender",
          "type": "address"
        }
      ],
      "name": "allowance",
      "outputs": [
        {
          "internalType": "uint256",
          "name": "",
          "type": "uint256"
        }
      ],
      "stateMutability": "view",
      "type": "function"
    },
    {
      "inputs": [
        {
          "internalType": "address",
          "name": "spender",
          "type": "address"
        },
        {
          "internalType": "uint256",
          "name": "value",
          "type": "uint256"
        }
      ],
      "name": "approve",
      "outputs": [
        {
          "internalType": "bool",
          "name": "",
          "type": "bool"
        }
      ],
      "stateMutability": "nonpayable",
      "type": "function"
    },
    {
      "inputs": [
        {
          "internalType": "address",
          "name": "account",
          "type": "address"
        }
      ],
      "name": "balanceOf",
      "outputs": [
        {
          "internalType": "uint256",
          "name": "",
          "type": "uint256"
        }
      ],
      "stateMutability": "view",
      "type": "function"
    },
    {
      "inputs": [
        {
          "internalType": "address[]",
          "name": "recipients",
          "type": "address[]"
        },
        {
          "internalType": "uint256[]",
          "name": "amounts",
          "type": "uint256[]"
        }
      ],
      "name": "batchMint",
      "outputs": [],
      "stateMutability": "nonpayable",
      "type": "function"
    },
    {
      "inputs": [
        {
          "internalType": "address",
          "name": "user",
          "type": "address"
        },
        {
          "internalType": "uint256",
          "name": "amount",
          "type": "uint256"
        }
      ],
      "name": "canMint",
      "outputs": [
        {
          "internalType": "bool",
          "name": "canMintResult",
          "type": "bool"
        },
        {
          "internalType": "string",
          "name": "reason",
          "type": "string"
        }
      ],
      "stateMutability": "pure",
      "type": "function"
    },
    {
      "inputs": [],
      "name": "decimals",
      "outputs": [
        {
          "internalType": "uint8",
          "name": "",
          "type": "uint8"
        }
      ],
      "stateMutability": "pure",
      "type": "function"
    },
    {
      "inputs": [],
      "name": "emergencyWithdrawETH",
      "outputs": [],
      "stateMutability": "nonpayable",
      "type": "function"
    },
    {
      "inputs": [
        {
          "internalType": "uint256",
          "name": "amount",
          "type": "uint256"
        }
      ],
      "name": "faucetMint",
      "outputs": [],
      "stateMutability": "nonpayable",
      "type": "function"
    },
    {
      "inputs": [],
      "name": "getFaucetStats",
      "outputs": [
        {
          "internalType": "uint256",
          "name": "minted",
          "type": "uint256"
        },
        {
          "internalType": "uint256",
          "name": "supply",
          "type": "uint256"
        }
      ],
      "stateMutability": "view",
      "type": "function"
    },
    {
      "inputs": [],
      "name": "mintMillion",
      "outputs": [],
      "stateMutability": "nonpayable",
      "type": "function"
    },
    {
      "inputs": [
        {
          "internalType": "uint8",
          "name": "preset",
          "type": "uint8"
        }
      ],
      "name": "mintPreset",
      "outputs": [],
      "stateMutability": "nonpayable",
      "type": "function"
    },
    {
      "inputs": [],
      "name": "mintTenMillion",
      "outputs": [],
      "stateMutability": "nonpayable",
      "type": "function"
    },
    {
      "inputs": [
        {
          "internalType": "address",
          "name": "to",
          "type": "address"
        },
        {
          "internalType": "uint256",
          "name": "amount",
          "type": "uint256"
        }
      ],
      "name": "mintTo",
      "outputs": [],
      "stateMutability": "nonpayable",
      "type": "function"
    },
    {
      "inputs": [],
      "name": "name",
      "outputs": [
        {
          "internalType": "string",
          "name": "",
          "type": "string"
        }
      ],
      "stateMutability": "view",
      "type": "function"
    },
    {
      "inputs": [],
      "name": "owner",
      "outputs": [
        {
          "internalType": "address",
          "name": "",
          "type": "address"
        }
      ],
      "stateMutability": "view",
      "type": "function"
    },
    {
      "inputs": [],
      "name": "renounceOwnership",
      "outputs": [],
      "stateMutability": "nonpayable",
      "type": "function"
    },
    {
      "inputs": [],
      "name": "symbol",
      "outputs": [
        {
          "internalType": "string",
          "name": "",
          "type": "string"
        }
      ],
      "stateMutability": "view",
      "type": "function"
    },
    {
      "inputs": [],
      "name": "totalMinted",
      "outputs": [
        {
          "internalType": "uint256",
          "name": "",
          "type": "uint256"
        }
      ],
      "stateMutability": "view",
      "type": "function"
    },
    {
      "inputs": [],
      "name": "totalSupply",
      "outputs": [
        {
          "internalType": "uint256",
          "name": "",
          "type": "uint256"
        }
      ],
      "stateMutability": "view",
      "type": "function"
    },
    {
      "inputs": [
        {
          "internalType": "address",
          "name": "to",
          "type": "address"
        },
        {
          "internalType": "uint256",
          "name": "value",
          "type": "uint256"
        }
      ],
      "name": "transfer",
      "outputs": [
        {
          "internalType": "bool",
          "name": "",
          "type": "bool"
        }
      ],
      "stateMutability": "nonpayable",
      "type": "function"
    },
    {
      "inputs": [
        {
          "internalType": "address",
          "name": "from",
          "type": "address"
        },
        {
          "internalType": "address",
          "name": "to",
          "type": "address"
        },
        {
          "internalType": "uint256",
          "name": "value",
          "type": "uint256"
        }
      ],
      "name": "transferFrom",
      "outputs": [
        {
          "internalType": "bool",
          "name": "",
          "type": "bool"
        }
      ],
      "stateMutability": "nonpayable",
      "type": "function"
    },
    {
      "inputs": [
        {
          "internalType": "address",
          "name": "newOwner",
          "type": "address"
        }
      ],
      "name": "transferOwnership",
      "outputs": [],
      "stateMutability": "nonpayable",
      "type": "function"
    }
  ],
  "bytecode": "0x60803462000414576040906001600160401b039080830182811182821017620003fe578352601381526020907f556e6c696d6974656420546573742055534443000000000000000000000000008282015283519284840184811082821117620003fe578552600493848152635553444360e01b848201528251828111620003e9576003918254916001958684811c94168015620003de575b88851014620003c9578190601f9485811162000373575b5088908583116001146200030c5760009262000300575b505060001982861b1c191690861b1783555b8051938411620002eb5786548581811c91168015620002e0575b87821014620002cb5782811162000280575b5085918411600114620002155793839491849260009562000209575b50501b92600019911b1c19161782555b3315620001f25760058054336001600160a01b0319821681179092556001600160a01b03167f8be0079c531659141344cd1fd0a4f28419497f9722a3daafe3b4186f6b6457e0600080a3600254655af3107a400092838201809211620001dd57506000917fddf252ad1be2c89b69c2b068fc378daa952ba7f163c4a11628f55a4df523b3ef9160025533835282815284832084815401905584519384523393a351610fe890816200041a8239f35b601190634e487b7160e01b6000525260246000fd5b5060006024925191631e4fbdf760e01b8352820152fd5b0151935038806200011f565b9190601f198416928760005284876000209460005b89898383106200026857505050106200024d575b50505050811b0182556200012f565b01519060f884600019921b161c19169055388080806200023e565b8686015189559097019694850194889350016200022a565b87600052866000208380870160051c820192898810620002c1575b0160051c019086905b828110620002b457505062000103565b60008155018690620002a4565b925081926200029b565b602288634e487b7160e01b6000525260246000fd5b90607f1690620000f1565b604187634e487b7160e01b6000525260246000fd5b015190503880620000c5565b90889350601f19831691876000528a6000209260005b8c8282106200035c575050841162000343575b505050811b018355620000d7565b015160001983881b60f8161c1916905538808062000335565b8385015186558c9790950194938401930162000322565b90915085600052886000208580850160051c8201928b8610620003bf575b918a91869594930160051c01915b828110620003af575050620000ae565b600081558594508a91016200039f565b9250819262000391565b602289634e487b7160e01b6000525260246000fd5b93607f169362000097565b604186634e487b7160e01b6000525260246000fd5b634e487b7160e01b600052604160045260246000fd5b600080fdfe6080604081815260048036101561001557600080fd5b600092833560e01c908163017fd4d514610b115750806306fdde0314610a1c578063095ea7b31461096c5780630d5e34a4146108da57806318160ddd146108bb57806323b872dd146107c2578063313ce567146107a6578063449a52f81461078a57806368573107146105f157806370a08231146105ba578063715018a61461055c578063845360171461050c5780638da5cb5b146104e357806395d89b41146103c8578063a2309ff8146103a9578063a9059cbb14610378578063c13463c914610353578063d8181951146102e8578063dd62ed3e1461029a578063e58306f91461026657838163e99eec161461021d57508063f2fde38b146101895763f90312121461012257600080fd5b829134610185578260031936011261018557303b156101855764e8d4a5100081519263d818195160e01b8452830152828260248183305af190811561017c57506101695750f35b61017290610cd4565b6101795780f35b80fd5b513d84823e3d90fd5b5050fd5b5034610219576020366003190112610219576101a3610c46565b906101ac610ca8565b6001600160a01b03918216928315610203575050600554826bffffffffffffffffffffffff60a01b821617600555167f8be0079c531659141344cd1fd0a4f28419497f9722a3daafe3b4186f6b6457e0600080a380f35b51631e4fbdf760e01b8152908101849052602490fd5b8280fd5b92905034610185578260031936011261018557303b15610185576509184e72a00081519263d818195160e01b8452830152828260248183305af190811561017c57506101695750f35b5050346102965736600319011261017957610293610282610c46565b61028a610ca8565b60243590610ecb565b80f35b5080fd5b5050346102965780600319360112610296576020916102b7610c46565b826102c0610c61565b6001600160a01b03928316845260018652922091166000908152908352819020549051908152f35b5034610219576020366003190112610219577f13f7a8394404abb94d1915c4b67b85728a38e1b205b9e0379f1ff893b1461d69903591610329831515610e21565b61033583600654610dfe565b6006556103428333610e6d565b80519283524260208401523392a280f35b8284346101795780600319360112610179575060065460025482519182526020820152f35b5050346102965780600319360112610296576020906103a2610398610c46565b6024359033610d20565b5160018152f35b5050346102965781600319360112610296576020906006549051908152f35b50913461017957806003193601126101795781519181845492600184811c918186169586156104d9575b60209687851081146104c6579087899a92868b999a9b52918260001461049c575050600114610441575b858861043d8961042e848a0385610cfe565b51928284938452830190610c06565b0390f35b815286935091907f8a35acfbc15ff81a39ae7d344fd709f28e8600b4aa8c65c6b64bfe7fe36bd19b5b828410610484575050508201018161042e61043d3861041c565b8054848a01860152889550879490930192810161046a565b60ff19168882015294151560051b8701909401945085935061042e925061043d915038905061041c565b634e487b7160e01b835260228a52602483fd5b92607f16926103f2565b50503461029657816003193601126102965760055490516001600160a01b039091168152602090f35b505034610296578160031936011261029657610526610ca8565b8180808060018060a01b03600554164790828215610553575bf115610549575080f35b51903d90823e3d90fd5b506108fc61053f565b8334610179578060031936011261017957610575610ca8565b600580546001600160a01b031981169091556000906001600160a01b03167f8be0079c531659141344cd1fd0a4f28419497f9722a3daafe3b4186f6b6457e08280a380f35b5050346102965760203660031901126102965760209181906001600160a01b036105e2610c46565b16815280845220549051908152f35b50903461021957806003193601126102195767ffffffffffffffff918035838111610786576106239036908301610c77565b929060249485359081116107825761063e9036908501610c77565b80869492940361074757875b868110610655578880f35b6001600160a01b038061067161066c848b89610f78565b610f9e565b16151580610733575b6106a3575b5060001981146106915760010161064a565b634e487b7160e01b8952601186528789fd5b6106ae828488610f78565b356106bc6006918254610dfe565b90556106e16106cf61066c848b89610f78565b6106da84868a610f78565b3590610e6d565b7f13f7a8394404abb94d1915c4b67b85728a38e1b205b9e0379f1ff893b1461d698461071161066c858c8a610f78565b9261071d85878b610f78565b359382519485524260208601521692a23861067f565b5061073f828488610f78565b35151561067a565b815162461bcd60e51b815260208187015260168189015275082e4e4c2f2e640d8cadccee8d040dad2e6dac2e8c6d60531b6044820152606490fd5b8680fd5b8480fd5b505034610296573660031901126101795761029361028a610c46565b5050346102965781600319360112610296576020905160068152f35b50829034610296576060366003190112610296576107de610c46565b6107e6610c61565b91604435938560018060a01b03841691828152600160205220336000526020528560002054916000198310610824575b6020876103a2888888610d20565b85831061088f57811561087857331561086157506000908152600160209081528682203383528152908690209185900390915582906103a2610816565b6024906000885191634a1406b160e11b8352820152fd5b602490600088519163e602df0560e01b8352820152fd5b8651637dc7a0d960e11b8152339181019182526020820193909352604081018690528291506060010390fd5b5050346102965781600319360112610296576020906002549051908152f35b509134610179578160031936011261017957506108f5610c46565b508051918183019083821067ffffffffffffffff83111761095757508152601e82527f4e6f207265737472696374696f6e73202d206d696e7420667265656c79210000602083015261043d815192839260018452806020850152830190610c06565b604190634e487b7160e01b6000525260246000fd5b50913461017957816003193601126101795750610987610c46565b602435903315610a05576001600160a01b03169081156109ee576020935033600052600184528260002082600052845280836000205582519081527f8c5be1e5ebec7d5bd14f71427d1e84f3dd0314c0f7b2291e5b200ac8c7c3b925843392a35160018152f35b8251634a1406b160e11b8152600081860152602490fd5b825163e602df0560e01b8152600081860152602490fd5b5091346101795780600319360112610179578151918160035492600184811c91818616958615610b07575b60209687851081146104c6578899509688969785829a529182600014610ae0575050600114610a84575b50505061043d929161042e910385610cfe565b9190869350600383527fc2575a0e9e593c00f959f8c92f12db2869c3395a3b0502d05e2516446f71f85b5b828410610ac8575050508201018161042e61043d610a71565b8054848a018601528895508794909301928101610aaf565b60ff19168782015293151560051b8601909301935084925061042e915061043d9050610a71565b92607f1692610a47565b8493915034610b7c576020366003190112610b7c57823560ff811680910361078657839080610b8057505050633b9aca005b303b15610b7c57815163d818195160e01b815292830152828260248183305af190811561017c5750610b73575080f35b61029390610cd4565b8380fd5b60018103610b96575050506402540be400610b43565b60028103610bac5750505064174876e800610b43565b60038103610bc25750505064e8d4a51000610b43565b03610bd457506509184e72a000610b43565b62461bcd60e51b8152602083820152600e60248201526d125b9d985b1a59081c1c995cd95d60921b6044820152606490fd5b919082519283825260005b848110610c32575050826000602080949584010152601f8019910116010190565b602081830181015184830182015201610c11565b600435906001600160a01b0382168203610c5c57565b600080fd5b602435906001600160a01b0382168203610c5c57565b9181601f84011215610c5c5782359167ffffffffffffffff8311610c5c576020808501948460051b010111610c5c57565b6005546001600160a01b03163303610cbc57565b60405163118cdaa760e01b8152336004820152602490fd5b67ffffffffffffffff8111610ce857604052565b634e487b7160e01b600052604160045260246000fd5b90601f8019910116810190811067ffffffffffffffff821117610ce857604052565b916001600160a01b03808416928315610de55716928315610dcc5760009083825281602052604082205490838210610d9a575091604082827fddf252ad1be2c89b69c2b068fc378daa952ba7f163c4a11628f55a4df523b3ef958760209652828652038282205586815220818154019055604051908152a3565b60405163391434e360e21b81526001600160a01b03919091166004820152602481019190915260448101839052606490fd5b60405163ec442f0560e01b815260006004820152602490fd5b604051634b637e8f60e11b815260006004820152602490fd5b91908201809211610e0b57565b634e487b7160e01b600052601160045260246000fd5b15610e2857565b60405162461bcd60e51b815260206004820152601d60248201527f416d6f756e74206d7573742062652067726561746572207468616e20300000006044820152606490fd5b6001600160a01b0316908115610dcc577fddf252ad1be2c89b69c2b068fc378daa952ba7f163c4a11628f55a4df523b3ef602082610eaf600094600254610dfe565b60025584845283825260408420818154019055604051908152a3565b6001600160a01b03811691908215610f335781610f2581604093610f117f13f7a8394404abb94d1915c4b67b85728a38e1b205b9e0379f1ff893b1461d69961515610e21565b610f1d82600654610dfe565b600655610e6d565b8151908152426020820152a2565b60405162461bcd60e51b815260206004820152601b60248201527f43616e6e6f74206d696e7420746f207a65726f206164647265737300000000006044820152606490fd5b9190811015610f885760051b0190565b634e487b7160e01b600052603260045260246000fd5b356001600160a01b0381168103610c5c579056fea26469706673582212208a5b8511fe875e6a99a47b873d33896f6a176dc2fb9cc60b8109586b99ef9a9764736f6c63430008140033",
  "linkReferences": {},
  "deployedLinkReferences": {}
}